:1000000012C02CC02BC02AC029C028C027C026C0BF
:1000100025C024C023C022C021C020C04AC01EC0A9
:100020001DC01CC01BC011241FBECFE5D2E0DEBF27
:10003000CDBF10E0A0E6B0E0E2E6F4E002C005903B
:100040000D92A838B107D9F720E0A8E8B0E001C0C8
:100050001D92AD38B207E1F7C2D001C2D1CFA89A44
:1000600083B7846083BF88E083BB89B7806189BF21
:1000700008958FB585608FBD80B7836A80BF87B5CF
:10008000896087BD08958AB3807F8ABB8BB3807FE8
:100090008BBB0895F8DF87B38F7A87BB88B3806501
:1000A00088BB0895DCDFF6DF8DEA9EED0DD17894F4
:1000B00008951F920F920FB60F9211248F939F9362
:1000C00080918C008F5F80938C0080918C0080FDEC
:1000D0002BC0B69929C082E48A95F1F700C08091BF
:1000E0008800823091F030F4882369F08130E1F4A7
:1000F00082E012C0833079F08430B1F4109288002D
:1001000084EF91E00DC081E001C083E0809388001E
:100110008AEF90E005C084E0809388008BE490E053
:1001200090936100809360009F918F910F900FBE1C
:100130000F901F901895009741F0EFECF7E0319782
:10014000F1F700C000000197F6CF0895FC019AB3C3
:1001500020818181822B892B8ABB9BB38081892B53
:100160008BBB9BB38181809589238BBB0895FC0158
:100170008AB391812081922B909598239ABB2BB3BF
:1001800081819081892B809582238BBB0895CF93A9
:10019000DF93EC01DBDF8091600090916100CBDFA9
:1001A000CE01DF91CF91E3CF8BD06CE070E020D017
:1001B000880F991F84599F4FEACFCF93DF93CCE6E6
:1001C000D0E080918800833038F4CE01E0DF2296C1
:1001D00080E0C438D807A9F7DF91CF91089562DF96
:1001E00080918800833010F0DFDFFACFE6DFF8CFB0
:1001F00097FB072E16F4009406D077FD08D00BD09D
:1002000007FC05D03EF4909581959F4F0895709519
:1002100061957F4F0895AA1BBB1B51E107C0AA1F20
:10022000BB1FA617B70710F0A61BB70B881F991F97
:100230005A95A9F780959095BC01CD010895A0E04D
:10024000B0E0E4E2F1E08AC0EC01688179818A8162
:100250009B81611571058105910521F464E279EDB9
:100260008BE597E02DE133EF41E050E038D04901D4
:100270005A0127EA31E440E050E04DD069017A01AB
:10028000C501B4012CEE34EF4FEF5FEF44D0022FE5
:10029000132F9A01D701C601800F911FA21FB31F10
:1002A000B7FF03C00197A109B04888839983AA8347
:1002B000BB839F77CDB7DEB7ECE06CC0C0DF08959D
:1002C00084E890E0BCDF0895A0E0B0E08093840073
:1002D00090938500A0938600B09387000895052E23
:1002E00097FB16F400940FD057FD05D068D007FC9B
:1002F00002D046F408C050954095309521953F4F67
:100300004F4F5F4F089590958095709561957F4F01
:100310008F4F9F4F089568940013E894A0E0B0E0D9
:10032000E3E9F1E01DC0EFEFE7F959016A015E234F
:10033000550FEE08FE2C87019B01AC019E23990FFF
:10034000660B762FCB015DD0CDB7DEB7EAE024C0D7
:100350002F923F924F925F926F927F928F929F92D5
:10036000AF92BF92CF92DF92EF92FF920F931F93C3
:10037000CF93DF93CDB7DEB7CA1BDB0B0FB6F89474
:10038000DEBF0FBECDBF09942A88398848885F84B4
:100390006E847D848C849B84AA84B984C884DF8025
:1003A000EE80FD800C811B81AA81B981CE0FD11D09
:1003B0000FB6F894DEBF0FBECDBFED010895A1E2E8
:1003C0001A2EAA1BBB1BFD010DC0AA1FBB1FEE1FCF
:1003D000FF1FA217B307E407F50720F0A21BB30B1A
:1003E000E40BF50B661F771F881F991F1A9469F796
:1003F00060957095809590959B01AC01BD01CF01F2
:100400000895DF93CF939F92A0E49A2E0024D00109
:10041000E001F00116950795F794E794D794C794F7
:10042000B794A79448F41068A20FB31FC41FD51F38
:10043000E61FF71F081E191E220F331F441F551FEA
:10044000661F771F881F991F9A9421F79D01AE019F
:10045000BF01C00111249F90CF91DF910895F894BE
:02046000FFCFCC
:10046200F4014D004A004C001020408004020204B6
:100472000804040808020208080101080401010432
:0804820002010102010000006B
:00000001FF
