:1000000012C02CC02BC02AC029C028C027C026C0BF
:1000100025C024C023C022C021C020C05BC01EC098
:100020001DC01CC01BC011241FBECFE5D2E0DEBF27
:10003000CDBF10E0A0E6B0E0E0E7F4E002C005903C
:100040000D92AA38B107D9F720E0AAE8B0E001C0C4
:100050001D92AE38B207E1F729D108C2D1CFA89AD4
:1000600083B7846083BF88E083BB89B7806189BF21
:1000700008958FB585608FBD80B7836A80BF87B5CF
:10008000896087BD08958AB3807F8ABB8BB3807FE8
:100090008BBB08958AB3806F8ABB87B38A6287BBA4
:1000A000F2DF87B38F7A87BB88B3806588BB8BB359
:1000B0008F708BBB88B38A6288BB8FEF8DBD8ABD82
:1000C0008CBD0895CCDFD5DFE5DF8DEA9EED6CD1E8
:1000D000789408951F920F920FB60F9211248F9368
:1000E0009F93EF93FF9380918D008F5F80938D009E
:1000F000E0918B008BB3F0E0E759FF4F9081892BA3
:100100008BBB80918B008F5F80938B0080918B00E5
:10011000843011F410928B00B69911C08AE68A954A
:10012000F1F700C080916000823009F468C008F0E7
:100130004CC0882309F453C0813009F45AC080911F
:100140008D008F7179F580918C00E0918A00F0E04C
:10015000EE0FFF1FED59FF4F0190F081E02D8095CC
:10016000808380918C008F5F80938C0080918C00C5
:100170008F3F91F4E0918A00F0E0EE0FFF1FED5900
:10018000FF4F0190F081E02D808380918A008F5F86
:1001900080938A0010928C0080918A00833011F441
:1001A00010928A00E0918B009BB3F0E0E759FF4F7B
:1001B0008081809589238BBBFF91EF919F918F91D7
:1001C0000F900FBE0F901F9018958330D1F08430A0
:1001D00009F0B5CF1092600084EF91E005C081E096
:1001E000809360008AEF90E09093620080936100BA
:1001F000A6CF82E0809360008BE490E0F5CF83E0AF
:10020000EFCF84E0F7CF019708F40895EFECF7E023
:100210003197F1F700C00000F6CFFC018AB390815E
:100220002181922B982B9ABB8BB39081892B8BBB0E
:100230009BB38181809589238BBB0895FC018AB390
:1002400090812181922B909598239ABB2BB390811A
:100250008181892B809582238BBB0895CF93DF9377
:10026000EC01DBDF8091610090916200CCDFCE0178
:10027000DF91CF91E3CF94D06CE070E020D0880F75
:10028000991F83599F4FEACFCF93DF93CDE6D0E0FC
:1002900080916000833038F4CE01E0DF229680E068
:1002A000C538D807A9F7DF91CF9108950BDF80916A
:1002B0006000833010F0DFDFFACFE6DFF8CF97FB86
:1002C000072E16F4009406D077FD08D00BD007FC5B
:1002D00005D03EF4909581959F4F08957095619556
:1002E0007F4F0895AA1BBB1B51E107C0AA1FBB1F6C
:1002F000A617B70710F0A61BB70B881F991F5A95B2
:10030000A9F780959095BC01CD0108958F929F9299
:10031000AF92BF92CF92DF92EF92FF92CF93DF9393
:10032000EC01688179818A819B8161157105810564
:10033000910521F464E279ED8BE597E02DE133EF4F
:1003400041E050E055D049015A0127EA31E440E04C
:1003500050E035D06B017C012CEE34EF4FEF5FEFB6
:10036000C501B4012CD0DC01CB018C0D9D1DAE1D4F
:10037000BF1DB7FF03C00197A109B04888839983C7
:10038000AA83BB839F77DF91CF91FF90EF90DF909F
:10039000CF90BF90AF909F908F900895B7DF089552
:1003A00085E890E0B3DF0895B0E0A0E08093850099
:1003B00090938600A0938700B09388000895EE275D
:1003C000FF27AA27BB2708C0A20FB31FE41FF51FF2
:1003D000220F331F441F551F969587957795679574
:1003E00098F37040A9F7009799F7BD01CF010895E0
:1003F000052E97FB16F400940FD057FD05D014D0AE
:1004000007FC02D046F408C05095409530952195E0
:100410003F4F4F4F5F4F0895909580957095619530
:100420007F4F8F4F9F4F0895A1E21A2EAA1BBB1B2F
:10043000FD010DC0AA1FBB1FEE1FFF1FA217B307B0
:10044000E407F50720F0A21BB30BE40BF50B661FC6
:10045000771F881F991F1A9469F76095709580958A
:1004600090959B01AC01BD01CF010895F894FFCF99
:1004700001FA004D004A004C0010204080040202A6
:100480000408040408080202080801010804010124
:0A0490000402010102010000000057
:00000001FF
