:1000000012C02CC02BC02AC029C028C027C026C0BF
:1000100025C024C023C022C021C020C05BC01EC098
:100020001DC01CC01BC011241FBECFE5D2E0DEBF27
:10003000CDBF10E0A0E6B0E0E8E7F4E002C0059034
:100040000D92A838B107D9F720E0A8E8B0E001C0C8
:100050001D92AD38B207E1F72DD10CC2D1CFA89ACD
:1000600083B7846083BF88E083BB89B7806189BF21
:1000700008958FB585608FBD80B7836A80BF87B5CF
:10008000896087BD08958AB3807F8ABB8BB3807FE8
:100090008BBB08958AB3806F8ABB87B38A6287BBA4
:1000A000F2DF87B38F7A87BB88B3806588BB8BB359
:1000B0008F708BBB88B38A6288BB8FEF8DBD8ABD82
:1000C0008CBD0895CCDFD5DFE5DF8DEA9EED70D1E4
:1000D000789408951F920F920FB60F9211248F9368
:1000E0009F93EF93FF9380918C008F5F80938C00A0
:1000F000E0918A008BB3F0E0E859FF4F9081892BA3
:100100008BBB80918A008F5F80938A0080918A00E8
:10011000843011F410928A0080918C008F7799F4CA
:10012000B69911C08AE68A95F1F700C080918800DF
:10013000823009F468C008F04CC0882309F453C029
:10014000813009F45AC080918C008F7179F58091CB
:100150008B00E0918900F0E0EE0FFF1FEE59FF4F9A
:100160000190F081E02D8095808380918B008F5FDE
:1001700080938B0080918B008F3F91F4E0918900F8
:10018000F0E0EE0FFF1FEE59FF4F0190F081E02DE0
:100190008083809189008F5F8093890010928B000B
:1001A00080918900833011F410928900E0918A00D7
:1001B0009BB3F0E0E859FF4F8081809589238BBB8A
:1001C000FF91EF919F918F910F900FBE0F901F9015
:1001D00018958330D1F0843009F0B5CF10928800A3
:1001E00084EF91E005C081E0809388008AEF90E081
:1001F0009093610080936000A6CF82E08093880096
:100200008BE490E0F5CF83E0EFCF84E0F7CF019768
:1002100008F40895EFECF7E03197F1F700C0000023
:10022000F6CFFC018AB390812181922B982B9ABB47
:100230008BB39081892B8BBB9BB381818095892364
:100240008BBB0895FC018AB390812181922B9095FC
:1002500098239ABB2BB390818181892B809582232F
:100260008BBB0895CF93DF93EC01DBDF80916000BF
:1002700090916100CCDFCE01DF91CF91E3CF94D09C
:100280006CE070E020D0880F991F84599F4FEACF0F
:10029000CF93DF93CCE6D0E080918800833038F4B0
:1002A000CE01E0DF229680E0C438D807A9F7DF91BD
:1002B000CF91089507DF80918800833010F0DFDF51
:1002C000FACFE6DFF8CF97FB072E16F4009406D09E
:1002D00077FD08D00BD007FC05D03EF490958195B2
:1002E0009F4F0895709561957F4F0895AA1BBB1B82
:1002F00051E107C0AA1FBB1FA617B70710F0A61B26
:10030000B70B881F991F5A95A9F780959095BC0146
:10031000CD0108958F929F92AF92BF92CF92DF92BC
:10032000EF92FF92CF93DF93EC01688179818A810C
:100330009B81611571058105910521F464E279EDD8
:100340008BE597E02DE133EF41E050E055D04901D6
:100350005A0127EA31E440E050E035D06B017C01DE
:100360002CEE34EF4FEF5FEFC501B4012CD0DC0170
:10037000CB018C0D9D1DAE1DBF1DB7FF03C00197A6
:10038000A109B04888839983AA83BB839F77DF91B3
:10039000CF91FF90EF90DF90CF90BF90AF909F9064
:1003A0008F900895B7DF089584E890E0B3DF089553
:1003B000B0E0A0E08093840090938500A093860035
:1003C000B09387000895EE27FF27AA27BB2708C010
:1003D000A20FB31FE41FF51F220F331F441F551F29
:1003E000969587957795679598F37040A9F700974C
:1003F00099F7BD01CF010895052E97FB16F40094DF
:100400000FD057FD05D014D007FC02D046F408C029
:1004100050954095309521953F4F4F4F5F4F089530
:1004200090958095709561957F4F8F4F9F4F089560
:10043000A1E21A2EAA1BBB1BFD010DC0AA1FBB1FE8
:10044000EE1FFF1FA217B307E407F50720F0A21B5A
:10045000B30BE40BF50B661F771F881F991F1A94C7
:1004600069F760957095809590959B01AC01BD01F1
:08047000CF010895F894FFCFBD
:10047800FA004D004A004C0010204080040202049B
:10048800080404080802020808010108040101041C
:08049800020101020100000055
:00000001FF
