:1000000012C02CC02BC02AC029C028C027C026C0BF
:1000100025C024C023C022C021C020C058C01EC09B
:100020001DC01CC01BC011241FBECFE5D2E0DEBF27
:10003000CDBF10E0A0E6B0E0EEE7F2E002C0059030
:100040000D92A638B107D9F720E0A6E8B0E001C0CC
:100050001D92AA38B207E1F70DD10FC1D1CFA89AEE
:1000600083B7846083BF88E083BB89B7806189BF21
:1000700008958FB585608FBD80B7836A80BF87B5CF
:10008000896087BD08958AB3807F8ABB8BB3807FE8
:100090008BBB08958AB3806F8ABB87B38A6287BBA4
:1000A000F2DF87B38F7A87BB88B3806588BB8BB359
:1000B0008F708BBB88B38A6288BB8FEF8DBD8ABD82
:1000C0008CBD0895CCDFD5DFE5DF789408951F92CD
:1000D0000F920FB60F9211248F939F93EF93FF937C
:1000E000809189008F5F80938900E09187008BB3B6
:1000F000F0E0E759FF4F9081892B8BBB80918700FF
:100100008F5F8093870080918700843011F4109274
:100110008700B6990EC08AE68A95F1F700C08091F3
:100120006000813009F455C008F449C0823009F4F8
:1001300056C0809189008F7179F580918800E09197
:100140008600F0E0EE0FFF1FED59FF4F0190F081A8
:10015000E02D80958083809188008F5F8093880058
:10016000809188008F3F91F4E0918600F0E0EE0FDF
:10017000FF1FED59FF4F0190F081E02D80838091AA
:1001800086008F5F809386001092880080918600A1
:10019000833011F410928600E09187009BB3F0E069
:1001A000E759FF4F8081809589238BBBFF91EF91A9
:1001B0009F918F910F900FBE0F901F90189581E027
:1001C000809360008AEF90E09093620080936100DA
:1001D000B0CF82E0809360008BE490E0F5CF109286
:1001E000600084EF91E0F0CF019708F40895EFEC00
:1001F000F7E03197F1F700C00000F6CFFC018AB3B9
:1002000090812181922B982B9ABB8BB39081892B63
:100210008BBB9BB38181809589238BBB0895FC01A7
:100220008AB390812181922B909598239ABB2BB30E
:1002300090818181892B809582238BBB0895CF93F8
:10024000DF93EC01DBDF8091610090916200CCDFF5
:10025000CE01DF91CF91E3CFCF93DF93CDE6D0E016
:10026000CE01EDDF229680E0C538D807C9F7DF91CF
:0E027000CF91089527DFF0DFFECFF894FFCF87
:10027E0001FA004D004A004C00102040800402029A
:10028E000408040408080202080801010804010118
:06029E0004020101020050
:00000001FF
