:1000000012C02CC02BC02AC029C028C027C026C0BF
:1000100025C024C023C022C021C020C058C01EC09B
:100020001DC01CC01BC011241FBECFE5D2E0DEBF27
:10003000CDBF10E0A0E6B0E0E2E9F1E002C005903B
:100040000D92A438B107D9F720E0A4E8B0E001C0D0
:100050001D92A838B207E1F797D099C0D1CFA89ADE
:1000600083B7846083BF88E083BB89B7806189BF21
:1000700008958FB585608FBD80B7836A80BF87B5CF
:10008000896087BD08958AB3807F8ABB8BB3807FE8
:100090008BBB08958AB3806F8ABB87B38A6287BBA4
:1000A000F2DF87B38F7A87BB88B3806588BB8BB359
:1000B0008F708BBB88B38A6288BB8FEF8DBD8ABD82
:1000C0008CBD0895CCDFD5DFE5DF789408951F92CD
:1000D0000F920FB60F9211248F939F9380918700F8
:1000E0008F5F809387008BB390E189278BBB9F91B3
:1000F0008F910F900FBE0F901F901895019708F4E5
:100100000895EFECF7E03197F1F700C00000F6CF6B
:10011000FC018AB390812181922B982B9ABB8BB3DF
:100120009081892B8BBB9BB38181809589238BBB6D
:100130000895FC018AB390812181922B9095982398
:100140009ABB2BB390818181892B809582238BBBB5
:100150000895CF93DF93EC01DBDF809160009091F5
:100160006100CCDFCE01DF91CF91E3CFCF93DF935E
:10017000CCE6D0E0CE01EDDF229680E0C438D8078F
:10018000C9F7DF91CF9108959DDFF0DFFECFF8949E
:02019000FFCF9F
:10019200F4014D004A004C00102040800402020489
:1001A2000804040808020208080101080401010405
:0401B2000201010243
:00000001FF
