:100000003CC04BC04AC049C048C047C0FBC145C006
:1000100044C043C042C041C040C03FC03EC03DC0DC
:100020003CC03BC03AC08CC092C09AC0A0C0A6C021
:10003000ACC0B2C0B8C0BEC0C4C0CCC0D4C0000048
:1000400000000500040003000000000000000102A1
:1000500004402010080402011020408008800101A3
:10006000010202020202020201010101010200007A
:100070003B00380000003A00370011241FBECFE5D6
:10008000D2E0DEBFCDBF20E0A0E6B0E001C01D920F
:10009000A936B207E1F79AD147C3B2CF61E08AE04F
:1000A000A7D261E08BE0A4D261E08CE0A1D261E054
:1000B0008DE09ED261E088E09BD261E086E098D23C
:1000C00061E084E095D260E08AE0E5D260E08BE018
:1000D000E2D260E08CE0DFD260E08DE0DCD26FEF56
:1000E00070E088E034D26FEF70E086E030D26FEFDE
:1000F00070E084E02CC21F93CF93DF93D82FC62FDC
:10010000842F122F60E074D260E0812F71D261E001
:100110008D2F6ED261E08D2FBED261E08C2F68D220
:1001200060E08C2FDF91CF911F91B5C201978C3089
:10013000910508F061C08D5E9F4F8F939F93089546
:1001400022E030E041E050E060E070E049C022E0B1
:1001500030E041E050E06EE070E080E090E0CBCF36
:100160002EE030E041E050E060E070E030C02EE092
:1001700030E041E050E062E070E0EFCF2EE030E0B0
:1001800042E050E060E070E034C02EE030E042E059
:1001900050E061E070E0E1CF2EE030E040E050E080
:1001A00061E070E014C02EE030E040E050E062E03A
:1001B00070E01FC021E030E040E050E062E070E01D
:1001C0000FC021E030E040E050E06EE070E082E0FF
:1001D00090E0C5CF22E030E040E050E061E070E028
:1001E0008EE090E0BCCF22E030E040E050E06EE0F6
:1001F00070E081E090E0B3CF60E080E0F9D160E0B2
:1002000081E0F6D160E082E0F3D160E08EE0F0C101
:10021000CF92DF92EF92FF920F931F93CF93DF93D2
:100220006C016FEF70E088E092D16FEF70E086E0D4
:100230008ED16FEF70E084E08AD1CFEFD0E00D2C4B
:10024000000CEE08FF08BE0186E081D1C701B601AF
:100250004AD12197C0F7C0E0D0E00FEF10E0BE0117
:1002600086E075D1B8016C1B7D0B84E070D1C701AD
:10027000B60139D12196C11581E0D80781F7C0E0D8
:10028000D0E00FEF10E0BE0184E061D1B8016C1B3B
:100290007D0B88E05CD1C701B60125D12196C1153F
:1002A00081E0D80781F7C0E0D0E0BE0188E04FD1FF
:1002B000C701B60118D12196C11581E0D807A9F769
:1002C0006FEF70E088E043D16FEF70E086E03FD1E0
:1002D0006FEF70E084E0DF91CF911F910F91FF905D
:1002E000EF90DF90CF9033C160E088E0D4D168EE2A
:1002F00073E080E090E0F7D061E088E0CCD160E08E
:1003000086E0C9D168EE73E080E090E0ECD061E077
:1003100086E0C1D160E084E0BED168EE73E080E0A9
:1003200090E0E1D061E084E0B6C1CF93DF9361E07B
:100330008AE0B1D1D9DF60E08AE0ADD161E08BE045
:10034000AAD1D2DF60E08BE0A6D161E08CE0A3D13E
:10035000CBDF60E08CE09FD161E08DE09CD1C4DF19
:1003600060E08DE098D1C1E0D0E0CE01DFDE68EE44
:1003700073E080E090E0B7D02196CE30D105A9F7A8
:1003800061E08AE088D18AE090E042DF60E08AE0C4
:1003900082D161E08BE07FD18AE090E039DF60E0DC
:1003A0008BE079D161E08CE076D18AE090E030DFBB
:1003B00060E08CE070D161E08DE06DD18AE090E08A
:1003C00027DF60E08DE0DF91CF9165C181B781BF0C
:1003D000AFD064DEAADFFECF8FB5807F8FBD80B740
:1003E000826080BF80B7816080BF87B5816087BD34
:1003F00086B58D7F86BD86B5816086BD8FB58760E9
:100400008FBD08951F920F920FB60F9211242F9354
:100410003F938F939F93AF93BF938091610090918F
:100420006200A0916300B09164003091600026E00A
:10043000230F2D3730F029E8230F0396A11DB11D9E
:1004400003C00296A11DB11D20936000809361003E
:1004500090936200A0936300B09364008091650064
:1004600090916600A0916700B09168000196A11D6F
:10047000B11D8093650090936600A0936700B093D0
:100480006800BF91AF919F918F913F912F910F90F5
:100490000FBE0F901F9018953FB7F894809165009C
:1004A00090916600A0916700B091680022B708B6ED
:1004B00001FE05C02F3F19F00196A11DB11D3FBFE0
:1004C000BA2FA92F982F8827820F911DA11DB11D2A
:1004D000BC01CD0143E0660F771F881F991F4A9525
:1004E000D1F708950895CF92DF92EF92FF92CF93C4
:1004F000DF936B017C01D0DFEB01C114D104E10477
:10050000F10479F0EFDFC8DF6C1B7D0B683E7340B0
:10051000A0F381E0C81AD108E108F108C851DC4F06
:10052000F2CFDF91CF91FF90EF90DF90CF900895C1
:1005300083B7887F836083BF789489B7826089BFDF
:100540004BDF86B18877866886B9379A08951F93FE
:10055000CF93DF93182FEB0161E04AD01C161D06E4
:1005600014F060E004C0CF3FD10534F061E0812F8A
:10057000DF91CF911F918FC0E12FF0E0E25CFF4F40
:10058000E491E33041F487B58F7787BD87B5806408
:1005900087BDCDBD18C0E43041F487B58F7D87BDE0
:1005A00087B5806187BDCCBD0EC0E53041F487B50D
:1005B000877F87BD87B5846087BDCABD04C0C0384A
:1005C000D105A4F6CECFDF91CF911F91089583304E
:1005D00031F480B78F7780BF80B78F7B07C08430BE
:1005E00031F480B78F7D80BF80B78F7E80BF089544
:1005F000CF93DF9387FF15C08F77282F30E0A901B5
:10060000435051094430510510F4895F0AC0275006
:1006100031092330310520F4ECE0E81B8E2F01C0B6
:100620008FEF90E0FC01E25BFF4F2491FC01E25A66
:10063000FF4F8491882361F190E0880F991FFC019E
:10064000EC58FF4FC591D491FC01E259FF4FA591A1
:10065000B491611109C09FB7F894888120958223D5
:100660008883EC912E230BC0623061F49FB7F8941D
:100670008881322F309583238883EC912E2B2C9305
:100680009FBF06C08FB7F894E8812E2B28838FBFB9
:10069000DF91CF9108951F93CF93DF93162F87FF9C
:1006A00015C08F77282F30E0A901435051094430FD
:1006B000510510F4895F0AC02750310923303105F4
:1006C00020F42CE0281B822F01C08FEF282F30E070
:1006D000F901E25CFF4F8491F901E25BFF4FD49195
:1006E000F901E25AFF4FC491CC23D1F081116FDFA1
:1006F000EC2FF0E0EE0FFF1FE259FF4FA591B491F0
:10070000111108C09FB7F8948C91D095D823DC9331
:100710009FBF06C08FB7F894EC91DE2BDC938FBFA0
:0C072000DF91CF911F910895F894FFCF56
:00000001FF
